:040000000EEF00F00F
:0400080084EF01F090
:100018008CEF01F09FEF03F09DA215EF00F017EFB2
:1000280000F010EF00F0DFEC03F09E8026EF00F008
:100038009EAE21EF00F023EF00F026EF00F09E9037
:100048009E9E9E809EB02BEF00F02DEF00F01CEFDF
:1000580000F08AEC03F0136E000E136E090E126E98
:1000680069EF00F08AEC03F0116E600E1324D96E6C
:10007800DA6A000EDA2211C0DFFF132A040E131801
:10008800D8A449EF00F04BEF00F069EF00F0020E42
:1000980000016019D8B453EF00F055EF00F067EF96
:1000A80000F0050E6019D8B45CEF00F05EEF00F0C8
:1000B80067EF00F0070E6019D8A465EF00F067EF4E
:1000C80000F069EF00F0615112261250135CD8A0BD
:1000D80070EF00F072EF00F036EF00F00BEC01F07B
:1000E800126E550EC8EC03F0000E136E86EF00F08A
:1000F800600E1324D96EDA6A000EDA22DF50C8ECDB
:1001080003F0132A1250135CD8A08DEF00F08FEF84
:1001180000F07CEF00F010EF00F0120065C0F6FF71
:1001280066C0F7FF67C0F8FFA40E806EF85009E1BB
:10013800000EF65C030EF758D8B0A5EF00F0A7EF55
:1001480000F0ADEF00F0FE0E0001696F0A0E0AEF35
:1001580001F0000E076E000E066EF6EF00F0690E55
:100168000624D96E000E0720DA6EDF50F56E000EF9
:10017800F65C000EF758020EF858D8A0C6EF00F04B
:10018800C8EF00F0CAEF00F0A7EF00F00D00F6CFBF
:1001980002F07F0E0216D8B4D4EF00F0D6EF00F0CC
:1001A800F0EF00F0FF0E026EFF0E036E20EE61F01E
:1001B800DECF04F0DDCF05F00250042603500522FF
:1001C8000650041807E107500518D8A4EEEF00F010
:1001D800F0EF00F0F4EF00F00A00EAEC03F0090099
:1001E800064A072A00016151065C62510758D8A0E7
:1001F80000EF01F002EF01F0B3EF00F0010E696FBC
:10020800000E006E000E016EAAEF00F0120063C02F
:1002180000F064C001F03CEF01F0A7EC02F0106EB2
:1002280066EF01F092EC00F0106E66EF01F068ECFA
:1002380001F0106E66EF01F0E6EC02F0106E66EF6A
:1002480001F0BEEC01F0106E66EF01F013EC02F065
:10025800106E66EF01F0010E696F010E216E090E36
:10026800106E66EF01F069690A0E106E66EF01F014
:10027800000160510E6E0F6A0F50000AD8B447EFA4
:1002880001F037EF01F00E50000AD8B411EF01F079
:10029800020AD8B416EF01F0010AD8B41BEF01F036
:1002A800050AD8B420EF01F0010AD8B425EF01F00F
:1002B8000F0AD8B42AEF01F0010AD8B42FEF01F0E1
:1002C80037EF01F01050120065C0F6FF66C0F7FF67
:1002D80067C0F8FF800EF614026EFF0EF714036E67
:1002E800FF0EF814046E045007E1030E035CD8B047
:1002F80080EF01F082EF01F088EF01F0FE0E0001BF
:10030800696F0A0EBDEF01F0000E066E000E056E55
:10031800A9EF01F0000EF65C000EF758020EF8582F
:10032800D8A099EF01F09BEF01F09DEF01F082EF6B
:1003380001F0940E806EEAEC03F0800EF626000EB3
:10034800F722000EF822054A062A00016151055CD1
:1003580062510658D8A0B3EF01F0B5EF01F08EEF67
:1003680001F0010E696F000E636F000E646F85EF78
:1003780001F0120065C0F6FF66C0F7FF67C0F8FF1E
:10038800F85009E1000EF65C030EF758D8B0CFEF2D
:1003980001F0D1EF01F0D7EF01F0FE0E0001696F17
:1003A8000A0E12EF02F0100EF65C000EF758200E3F
:1003B800F858D8A0E2EF01F0E4EF01F0E8EF01F01F
:1003C800C40E806EEAEF01F0840E806E000E046E9B
:1003D800FBEF01F0690E0424D96EDA6A000EDA2206
:1003E800DF50F56E0C00EAEC03F0F62A042A0450FC
:1003F800026E036A00016151025C62510358D8A081
:1004080008EF02F00AEF02F0EEEF01F0010E696F5B
:10041800000E006E000E016ED4EF01F0120065C0F0
:10042800F6FF66C0F7FF67C0F8FF800E806E000E0B
:10043800206E000E1F6E61C00AF062C00BF00C6ADD
:100448000D6A63C002F0036A046A056A03C005F016
:1004580002C004F0036A026A02500A2603500B2203
:1004680004500C2205500D22000E066E000E076E79
:10047800000E086E000E096E50EF02F00900F550EC
:100488001F26000E20220900F5502026020E0626FF
:10049800000E0722082209220A50065C0B50075852
:1004A8000C5008580D500958D8A05DEF02F05FEFC6
:1004B80002F042EF02F01FC069F0205000016A6F9D
:1004C8000B0E1200000E866E000E856E000E826EF8
:1004D800000E836E000E846E070E8B6EFE0E876E06
:1004E8008868BF0E896E8A680F0121693F0E1C6FEC
:1004F8001469070E296FDE0E0C6F000E206F000EB8
:10050800286F000E136F210E0B6FC00E1B6F000EAD
:10051800276F000E0A6F000E126F000E1A6F000E82
:100528001F6F0969116919691E69070E266F086925
:10053800106918691D690F0E256F170E0E01B06F2F
:10054800090EF86F1200010E0001696F010E6A6F43
:10055800000E6B6F010E6C6F000E6D6F000E6E6FEC
:100568003F0EF86EF768FE0EF66EC00E806E09003C
:10057800F5CF6FF00900F5CF70F0000E0001716F34
:10058800000E726F800E736F800E746F300EF86EEF
:10059800000EF76E000EF66E0C0E026E0900690E64
:1005A8000224D96EDA6A000EDA22F5CFDFFF022ABA
:1005B8000F0E0264E2EF02F0E4EF02F0D2EF02F075
:1005C800190E120065C0F6FF66C0F7FF67C0F8FF96
:1005D800C00E806EF85009E1000EF65C030EF75865
:1005E800D8B0F9EF02F0FBEF02F001EF03F0FE0ED6
:1005F8000001696F0A0E20EF03F0000E046E0FEF82
:1006080003F00900690E0424D96EDA6A000EDA22B2
:10061800F5CFDFFF042A0450026E036A000161511E
:10062800025C62510358D8A01CEF03F01EEF03F0E0
:1006380005EF03F06151090F1200000E026E00F081
:10064800022A0228D8A42BEF03F02DEF03F023EFA2
:1006580003F08CBA32EF03F034EF03F037EF03F016
:10066800010E4BEF03F0000EF66E030EF76E000E50
:10067800F86E800E806E0900F528D8A446EF03F0C6
:1006880048EF03F04AEF03F034EF03F0000E1200D6
:10069800080E9E6E900E9C6E240E9D6E670E9A6ECE
:1006A800000E9B6E000E026E000E036E000E046EAE
:1006B800FAEC03F0000E026E000E036E000E046EDC
:1006C800F3EC03F0000E026E000E036E000E046ED3
:1006D80001EC04F0000E246E1200000E006E000EF5
:1006E800016E828021EC03F0E806D8A47EEF03F0C7
:1006F80080EF03F082EF03F010EC00F0000EFC6EC8
:10070800000EE06E829080EF01F012000E01C8AB7F
:1007180090EF03F092EF03F08AEF03F0000E246EDF
:100728009CA299EF03F09BEF03F09DEF03F09C98D8
:100738009C889850120000EE60F0890EEE6AE80678
:10074800FDE100EE1DF0080EEE6AE806FDE100018D
:1007580008EF04F0000E0E01DC6F000EDD6F000ED6
:10076800DE6F000EDF6F000EE06F000EE16F12000B
:10077800630E0E01D36F000ED56F000ED76F060EF5
:10078800D96F000ED86F1200026E0E01C8A9CFEF04
:1007980003F0D1EF03F0C9EF03F002C099FF120094
:1007A800AEEC03F066EC02F0BCEC03F04CEC03F0AA
:1007B80071EC03F012002104D8A4E5EF03F0E7EF91
:1007C80003F0E9EF03F08290FF0012000F010050E0
:1007D800816F0150816F808200F000F0120002C02A
:1007E80017F003C018F004C019F0120002C01AF084
:1007F80003C01BF004C01CF0120002C014F003C0B8
:1008080015F004C016F01200D4EC03F00AEF04F05F
:040818000EEF00F0EF
:020000040020DA
:10000000FFFFFFFFFFFFFFFFFFFFFFFFFFFFFFFF00
:10001000FFFFFFFFFFFFFFFFFFFFFFFFFFFFFFFFF0
:10002000FFFFFFFFFFFFFFFFFFFFFFFFFFFFFFFFE0
:10003000FFFFFFFFFFFFFFFFFFFFFFFFFFFFFFFFD0
:10004000FFFFFFFFFFFFFFFFFFFFFFFFFFFFFFFFC0
:10005000FFFFFFFFFFFFFFFFFFFFFFFFFFFFFFFFB0
:10006000FFFFFFFFFFFFFFFFFFFFFFFFFFFFFFFFA0
:10007000FFFFFFFFFFFFFFFFFFFFFFFFFFFFFFFF90
:10008000FFFFFFFFFFFFFFFFFFFFFFFFFFFFFFFF80
:10009000FFFFFFFFFFFFFFFFFFFFFFFFFFFFFFFF70
:1000A000FFFFFFFFFFFFFFFFFFFFFFFFFFFFFFFF60
:1000B000FFFFFFFFFFFFFFFFFFFFFFFFFFFFFFFF50
:1000C000FFFFFFFFFFFFFFFFFFFFFFFFFFFFFFFF40
:1000D000FFFFFFFFFFFFFFFFFFFFFFFFFFFFFFFF30
:1000E000FFFFFFFFFFFFFFFFFFFFFFFFFFFFFFFF20
:1000F000FFFFFFFFFFFFFFFFFFFFFFFFFFFFFFFF10
:020000040030CA
:0C000000ECFFFFFF9FFFFFFFFFFFFFFF73
:00000001FF
